{
  "contractName": "AutonomousCrossing",
  "abi": [
    {
      "inputs": [],
      "payable": false,
      "stateMutability": "nonpayable",
      "type": "constructor"
    },
    {
      "constant": true,
      "inputs": [],
      "name": "authority",
      "outputs": [
        {
          "internalType": "address",
          "name": "",
          "type": "address"
        }
      ],
      "payable": false,
      "stateMutability": "view",
      "type": "function"
    },
    {
      "constant": true,
      "inputs": [
        {
          "internalType": "address",
          "name": "",
          "type": "address"
        }
      ],
      "name": "crossing_lanes",
      "outputs": [
        {
          "internalType": "address",
          "name": "id",
          "type": "address"
        },
        {
          "internalType": "bool",
          "name": "isSet",
          "type": "bool"
        },
        {
          "internalType": "uint8",
          "name": "lane_num",
          "type": "uint8"
        },
        {
          "internalType": "uint8",
          "name": "cars_per_lane",
          "type": "uint8"
        }
      ],
      "payable": false,
      "stateMutability": "view",
      "type": "function"
    },
    {
      "constant": true,
      "inputs": [
        {
          "internalType": "address",
          "name": "",
          "type": "address"
        }
      ],
      "name": "crossings",
      "outputs": [
        {
          "internalType": "address",
          "name": "id",
          "type": "address"
        },
        {
          "internalType": "bool",
          "name": "isSet",
          "type": "bool"
        },
        {
          "internalType": "enum AutonomousCrossing.CrossingState",
          "name": "state",
          "type": "uint8"
        },
        {
          "internalType": "address",
          "name": "train_lock",
          "type": "address"
        },
        {
          "internalType": "uint16",
          "name": "time_to_pass",
          "type": "uint16"
        },
        {
          "internalType": "uint256",
          "name": "freeValidity",
          "type": "uint256"
        }
      ],
      "payable": false,
      "stateMutability": "view",
      "type": "function"
    },
    {
      "constant": true,
      "inputs": [
        {
          "internalType": "address",
          "name": "",
          "type": "address"
        }
      ],
      "name": "trains",
      "outputs": [
        {
          "internalType": "address",
          "name": "id",
          "type": "address"
        },
        {
          "internalType": "bool",
          "name": "isSet",
          "type": "bool"
        }
      ],
      "payable": false,
      "stateMutability": "view",
      "type": "function"
    },
    {
      "constant": true,
      "inputs": [],
      "name": "getAuthority",
      "outputs": [
        {
          "internalType": "address",
          "name": "",
          "type": "address"
        }
      ],
      "payable": false,
      "stateMutability": "view",
      "type": "function"
    },
    {
      "constant": false,
      "inputs": [
        {
          "internalType": "address",
          "name": "schedulerAddress",
          "type": "address"
        }
      ],
      "name": "setScheduler",
      "outputs": [],
      "payable": false,
      "stateMutability": "nonpayable",
      "type": "function"
    },
    {
      "constant": true,
      "inputs": [],
      "name": "ScheduledCheck",
      "outputs": [],
      "payable": false,
      "stateMutability": "view",
      "type": "function"
    },
    {
      "constant": false,
      "inputs": [
        {
          "internalType": "address",
          "name": "id",
          "type": "address"
        },
        {
          "internalType": "uint8",
          "name": "lanes",
          "type": "uint8"
        },
        {
          "internalType": "uint8",
          "name": "cars_per_lane",
          "type": "uint8"
        },
        {
          "internalType": "uint16",
          "name": "time_to_pass",
          "type": "uint16"
        }
      ],
      "name": "RegisterCrossing",
      "outputs": [],
      "payable": false,
      "stateMutability": "nonpayable",
      "type": "function"
    },
    {
      "constant": false,
      "inputs": [
        {
          "internalType": "address",
          "name": "id",
          "type": "address"
        }
      ],
      "name": "RegisterTrain",
      "outputs": [],
      "payable": false,
      "stateMutability": "nonpayable",
      "type": "function"
    },
    {
      "constant": false,
      "inputs": [
        {
          "internalType": "address",
          "name": "crossing",
          "type": "address"
        }
      ],
      "name": "LockCrossing",
      "outputs": [
        {
          "internalType": "bool",
          "name": "",
          "type": "bool"
        }
      ],
      "payable": false,
      "stateMutability": "nonpayable",
      "type": "function"
    },
    {
      "constant": false,
      "inputs": [
        {
          "internalType": "address",
          "name": "crossing",
          "type": "address"
        }
      ],
      "name": "ReleaseLock",
      "outputs": [],
      "payable": false,
      "stateMutability": "nonpayable",
      "type": "function"
    },
    {
      "constant": false,
      "inputs": [],
      "name": "RegisterCar",
      "outputs": [],
      "payable": false,
      "stateMutability": "nonpayable",
      "type": "function"
    },
    {
      "constant": false,
      "inputs": [
        {
          "internalType": "address",
          "name": "crossing",
          "type": "address"
        },
        {
          "internalType": "uint8",
          "name": "lane",
          "type": "uint8"
        }
      ],
      "name": "RequestPass",
      "outputs": [
        {
          "internalType": "uint256",
          "name": "",
          "type": "uint256"
        }
      ],
      "payable": false,
      "stateMutability": "nonpayable",
      "type": "function"
    },
    {
      "constant": false,
      "inputs": [],
      "name": "ReleasePass",
      "outputs": [],
      "payable": false,
      "stateMutability": "nonpayable",
      "type": "function"
    }
  ],
  "bytecode": "0x60806040526213c68060015534801561001757600080fd5b50336000806101000a81548173ffffffffffffffffffffffffffffffffffffffff021916908373ffffffffffffffffffffffffffffffffffffffff160217905550612962806100676000396000f3fe608060405234801561001057600080fd5b50600436106100ea5760003560e01c80635d73410c1161008c578063bf7e214f11610066578063bf7e214f146104dd578063e2b178a014610527578063f80cfd2514610571578063fd557e201461057b576100ea565b80635d73410c1461035057806360879506146103ac578063b0a3c04d14610499576100ea565b8063391a9746116100c8578063391a9746146101ac57806339ab9887146102185780633f6746ce1461027d5780635c2a2876146102c1576100ea565b806306860988146100ef57806317ea2e07146100f95780631a4871bd146101a2575b600080fd5b6100f76105bf565b005b61013b6004803603602081101561010f57600080fd5b81019080803573ffffffffffffffffffffffffffffffffffffffff169060200190929190505050610667565b604051808573ffffffffffffffffffffffffffffffffffffffff1673ffffffffffffffffffffffffffffffffffffffff168152602001841515151581526020018360ff1660ff1681526020018260ff1660ff16815260200194505050505060405180910390f35b6101aa6106de565b005b610216600480360360808110156101c257600080fd5b81019080803573ffffffffffffffffffffffffffffffffffffffff169060200190929190803560ff169060200190929190803560ff169060200190929190803561ffff169060200190929190505050610b51565b005b6102676004803603604081101561022e57600080fd5b81019080803573ffffffffffffffffffffffffffffffffffffffff169060200190929190803560ff169060200190929190505050610fd9565b6040518082815260200191505060405180910390f35b6102bf6004803603602081101561029357600080fd5b81019080803573ffffffffffffffffffffffffffffffffffffffff1690602001909291905050506116fd565b005b610303600480360360208110156102d757600080fd5b81019080803573ffffffffffffffffffffffffffffffffffffffff1690602001909291905050506117e6565b604051808373ffffffffffffffffffffffffffffffffffffffff1673ffffffffffffffffffffffffffffffffffffffff168152602001821515151581526020019250505060405180910390f35b6103926004803603602081101561036657600080fd5b81019080803573ffffffffffffffffffffffffffffffffffffffff169060200190929190505050611837565b604051808215151515815260200191505060405180910390f35b6103ee600480360360208110156103c257600080fd5b81019080803573ffffffffffffffffffffffffffffffffffffffff169060200190929190505050611ba8565b604051808773ffffffffffffffffffffffffffffffffffffffff1673ffffffffffffffffffffffffffffffffffffffff1681526020018615151515815260200185600281111561043a57fe5b60ff1681526020018473ffffffffffffffffffffffffffffffffffffffff1673ffffffffffffffffffffffffffffffffffffffff1681526020018361ffff1661ffff168152602001828152602001965050505050505060405180910390f35b6104db600480360360208110156104af57600080fd5b81019080803573ffffffffffffffffffffffffffffffffffffffff169060200190929190505050611c4c565b005b6104e5611ddb565b604051808273ffffffffffffffffffffffffffffffffffffffff1673ffffffffffffffffffffffffffffffffffffffff16815260200191505060405180910390f35b61052f611e00565b604051808273ffffffffffffffffffffffffffffffffffffffff1673ffffffffffffffffffffffffffffffffffffffff16815260200191505060405180910390f35b610579611e29565b005b6105bd6004803603602081101561059157600080fd5b81019080803573ffffffffffffffffffffffffffffffffffffffff169060200190929190505050612297565b005b600260009054906101000a900473ffffffffffffffffffffffffffffffffffffffff1673ffffffffffffffffffffffffffffffffffffffff163373ffffffffffffffffffffffffffffffffffffffff1614610665576040517f08c379a00000000000000000000000000000000000000000000000000000000081526004018080602001828103825260358152602001806127de6035913960400191505060405180910390fd5b565b60046020528060005260406000206000915090508060000160009054906101000a900473ffffffffffffffffffffffffffffffffffffffff16908060000160149054906101000a900460ff16908060000160159054906101000a900460ff16908060000160169054906101000a900460ff16905084565b600660003373ffffffffffffffffffffffffffffffffffffffff1673ffffffffffffffffffffffffffffffffffffffff16815260200190815260200160002060000160149054906101000a900460ff16156107a1576040517f08c379a000000000000000000000000000000000000000000000000000000000815260040180806020018281038252601c8152602001807f416c726561647920726567697374657265642061732061206361722e0000000081525060200191505060405180910390fd5b600560003373ffffffffffffffffffffffffffffffffffffffff1673ffffffffffffffffffffffffffffffffffffffff16815260200190815260200160002060000160149054906101000a900460ff1615610864576040517f08c379a000000000000000000000000000000000000000000000000000000000815260040180806020018281038252601e8152602001807f416c72656164792072656769737465726564206173206120747261696e2e000081525060200191505060405180910390fd5b600360003373ffffffffffffffffffffffffffffffffffffffff1673ffffffffffffffffffffffffffffffffffffffff16815260200190815260200160002060000160149054906101000a900460ff161561090a576040517f08c379a00000000000000000000000000000000000000000000000000000000081526004018080602001828103825260218152602001806128136021913960400191505060405180910390fd5b610912612504565b33816000019073ffffffffffffffffffffffffffffffffffffffff16908173ffffffffffffffffffffffffffffffffffffffff1681525050600181602001901515908115158152505060008160400181815250508060066000836000015173ffffffffffffffffffffffffffffffffffffffff1673ffffffffffffffffffffffffffffffffffffffff16815260200190815260200160002060008201518160000160006101000a81548173ffffffffffffffffffffffffffffffffffffffff021916908373ffffffffffffffffffffffffffffffffffffffff16021790555060208201518160000160146101000a81548160ff0219169083151502179055506040820151816001015560608201518160020160008201518160000160006101000a81548173ffffffffffffffffffffffffffffffffffffffff021916908373ffffffffffffffffffffffffffffffffffffffff16021790555060208201518160000160146101000a81548160ff02191690831515021790555060408201518160000160156101000a81548160ff02191690836002811115610aaf57fe5b021790555060608201518160010160006101000a81548173ffffffffffffffffffffffffffffffffffffffff021916908373ffffffffffffffffffffffffffffffffffffffff16021790555060808201518160010160146101000a81548161ffff021916908361ffff16021790555060a08201518160020155505060808201518160050160006101000a81548160ff021916908360ff16021790555090505050565b6000809054906101000a900473ffffffffffffffffffffffffffffffffffffffff1673ffffffffffffffffffffffffffffffffffffffff163373ffffffffffffffffffffffffffffffffffffffff1614610bf6576040517f08c379a000000000000000000000000000000000000000000000000000000000815260040180806020018281038252602b815260200180612903602b913960400191505060405180910390fd5b610bfe612554565b610c066125c7565b85826000019073ffffffffffffffffffffffffffffffffffffffff16908173ffffffffffffffffffffffffffffffffffffffff168152505085816000019073ffffffffffffffffffffffffffffffffffffffff16908173ffffffffffffffffffffffffffffffffffffffff1681525050600182602001901515908115158152505060018160200190151590811515815250506000826060019073ffffffffffffffffffffffffffffffffffffffff16908173ffffffffffffffffffffffffffffffffffffffff1681525050600182604001906002811115610ce357fe5b90816002811115610cf057fe5b8152505060015442018260a001818152505082826080019061ffff16908161ffff168152505083816060019060ff16908160ff168152505084816040019060ff16908160ff1681525050806040015160ff16604051908082528060200260200182016040528015610d705781602001602082028038833980820191505090505b5081608001819052508160036000846000015173ffffffffffffffffffffffffffffffffffffffff1673ffffffffffffffffffffffffffffffffffffffff16815260200190815260200160002060008201518160000160006101000a81548173ffffffffffffffffffffffffffffffffffffffff021916908373ffffffffffffffffffffffffffffffffffffffff16021790555060208201518160000160146101000a81548160ff02191690831515021790555060408201518160000160156101000a81548160ff02191690836002811115610e4857fe5b021790555060608201518160010160006101000a81548173ffffffffffffffffffffffffffffffffffffffff021916908373ffffffffffffffffffffffffffffffffffffffff16021790555060808201518160010160146101000a81548161ffff021916908361ffff16021790555060a082015181600201559050508060046000846000015173ffffffffffffffffffffffffffffffffffffffff1673ffffffffffffffffffffffffffffffffffffffff16815260200190815260200160002060008201518160000160006101000a81548173ffffffffffffffffffffffffffffffffffffffff021916908373ffffffffffffffffffffffffffffffffffffffff16021790555060208201518160000160146101000a81548160ff02191690831515021790555060408201518160000160156101000a81548160ff021916908360ff16021790555060608201518160000160166101000a81548160ff021916908360ff1602179055506080820151816001019080519060200190610fcd929190612614565b50905050505050505050565b6000600660003373ffffffffffffffffffffffffffffffffffffffff1673ffffffffffffffffffffffffffffffffffffffff16815260200190815260200160002060000160149054906101000a900460ff16611080576040517f08c379a00000000000000000000000000000000000000000000000000000000081526004018080602001828103825260258152602001806127b96025913960400191505060405180910390fd5b6000600360008573ffffffffffffffffffffffffffffffffffffffff1673ffffffffffffffffffffffffffffffffffffffff16815260200190815260200160002090506000600660003373ffffffffffffffffffffffffffffffffffffffff1673ffffffffffffffffffffffffffffffffffffffff16815260200190815260200160002090508160000160149054906101000a900460ff1661118a576040517f08c379a00000000000000000000000000000000000000000000000000000000081526004018080602001828103825260208152602001807f496e76616c69642072657175657374202d206e6f7420612063726f7373696e6781525060200191505060405180910390fd5b60008160010154146111e7576040517f08c379a000000000000000000000000000000000000000000000000000000000815260040180806020018281038252602c8152602001806128d7602c913960400191505060405180910390fd5b600160028111156111f457fe5b8260000160159054906101000a900460ff16600281111561121157fe5b14611267576040517f08c379a00000000000000000000000000000000000000000000000000000000081526004018080602001828103825260288152602001806127916028913960400191505060405180910390fd5b81600201544211156112c4576040517f08c379a00000000000000000000000000000000000000000000000000000000081526004018080602001828103825260398152602001806128346039913960400191505060405180910390fd5b600460008673ffffffffffffffffffffffffffffffffffffffff1673ffffffffffffffffffffffffffffffffffffffff16815260200190815260200160002060000160159054906101000a900460ff1660ff168460ff161061138e576040517f08c379a000000000000000000000000000000000000000000000000000000000815260040180806020018281038252600d8152602001807f496e76616c6964206c616e652e0000000000000000000000000000000000000081525060200191505060405180910390fd5b600460008673ffffffffffffffffffffffffffffffffffffffff1673ffffffffffffffffffffffffffffffffffffffff16815260200190815260200160002060000160169054906101000a900460ff1660ff16600460008773ffffffffffffffffffffffffffffffffffffffff1673ffffffffffffffffffffffffffffffffffffffff1681526020019081526020016000206001018560ff168154811061143157fe5b90600052602060002090602091828204019190069054906101000a900460ff1660ff16106114aa576040517f08c379a00000000000000000000000000000000000000000000000000000000081526004018080602001828103825260218152602001806128916021913960400191505060405180910390fd5b600460008673ffffffffffffffffffffffffffffffffffffffff1673ffffffffffffffffffffffffffffffffffffffff1681526020019081526020016000206001018460ff16815481106114fa57fe5b906000526020600020906020918282040191900681819054906101000a900460ff168092919060010191906101000a81548160ff021916908360ff160217905550508160010160149054906101000a900461ffff1661ffff1642018160010181905550838160050160006101000a81548160ff021916908360ff16021790555081816002016000820160009054906101000a900473ffffffffffffffffffffffffffffffffffffffff168160000160006101000a81548173ffffffffffffffffffffffffffffffffffffffff021916908373ffffffffffffffffffffffffffffffffffffffff1602179055506000820160149054906101000a900460ff168160000160146101000a81548160ff0219169083151502179055506000820160159054906101000a900460ff168160000160156101000a81548160ff0219169083600281111561164457fe5b02179055506001820160009054906101000a900473ffffffffffffffffffffffffffffffffffffffff168160010160006101000a81548173ffffffffffffffffffffffffffffffffffffffff021916908373ffffffffffffffffffffffffffffffffffffffff1602179055506001820160149054906101000a900461ffff168160010160146101000a81548161ffff021916908361ffff1602179055506002820154816002015590505080600101549250505092915050565b6000809054906101000a900473ffffffffffffffffffffffffffffffffffffffff1673ffffffffffffffffffffffffffffffffffffffff163373ffffffffffffffffffffffffffffffffffffffff16146117a2576040517f08c379a000000000000000000000000000000000000000000000000000000000815260040180806020018281038252602b815260200180612903602b913960400191505060405180910390fd5b80600260006101000a81548173ffffffffffffffffffffffffffffffffffffffff021916908373ffffffffffffffffffffffffffffffffffffffff16021790555050565b60056020528060005260406000206000915090508060000160009054906101000a900473ffffffffffffffffffffffffffffffffffffffff16908060000160149054906101000a900460ff16905082565b6000600560003373ffffffffffffffffffffffffffffffffffffffff1673ffffffffffffffffffffffffffffffffffffffff16815260200190815260200160002060000160149054906101000a900460ff166118de576040517f08c379a000000000000000000000000000000000000000000000000000000000815260040180806020018281038252602481526020018061286d6024913960400191505060405180910390fd5b81600360008273ffffffffffffffffffffffffffffffffffffffff1673ffffffffffffffffffffffffffffffffffffffff16815260200190815260200160002060000160149054906101000a900460ff166119a1576040517f08c379a000000000000000000000000000000000000000000000000000000000815260040180806020018281038252600f8152602001807f4e6f7420612063726f7373696e672e000000000000000000000000000000000081525060200191505060405180910390fd5b600073ffffffffffffffffffffffffffffffffffffffff16600360008573ffffffffffffffffffffffffffffffffffffffff1673ffffffffffffffffffffffffffffffffffffffff16815260200190815260200160002060010160009054906101000a900473ffffffffffffffffffffffffffffffffffffffff1673ffffffffffffffffffffffffffffffffffffffff1614611a405760009150611ba2565b33600360008573ffffffffffffffffffffffffffffffffffffffff1673ffffffffffffffffffffffffffffffffffffffff16815260200190815260200160002060010160006101000a81548173ffffffffffffffffffffffffffffffffffffffff021916908373ffffffffffffffffffffffffffffffffffffffff160217905550611aca83612403565b15611b38576000600360008573ffffffffffffffffffffffffffffffffffffffff1673ffffffffffffffffffffffffffffffffffffffff16815260200190815260200160002060000160156101000a81548160ff02191690836002811115611b2e57fe5b0217905550611b9d565b6002600360008573ffffffffffffffffffffffffffffffffffffffff1673ffffffffffffffffffffffffffffffffffffffff16815260200190815260200160002060000160156101000a81548160ff02191690836002811115611b9757fe5b02179055505b600191505b50919050565b60036020528060005260406000206000915090508060000160009054906101000a900473ffffffffffffffffffffffffffffffffffffffff16908060000160149054906101000a900460ff16908060000160159054906101000a900460ff16908060010160009054906101000a900473ffffffffffffffffffffffffffffffffffffffff16908060010160149054906101000a900461ffff16908060020154905086565b6000809054906101000a900473ffffffffffffffffffffffffffffffffffffffff1673ffffffffffffffffffffffffffffffffffffffff163373ffffffffffffffffffffffffffffffffffffffff1614611cf1576040517f08c379a000000000000000000000000000000000000000000000000000000000815260040180806020018281038252602b815260200180612903602b913960400191505060405180910390fd5b611cf96126bb565b60405180604001604052808373ffffffffffffffffffffffffffffffffffffffff1681526020016001151581525090508060056000836000015173ffffffffffffffffffffffffffffffffffffffff1673ffffffffffffffffffffffffffffffffffffffff16815260200190815260200160002060008201518160000160006101000a81548173ffffffffffffffffffffffffffffffffffffffff021916908373ffffffffffffffffffffffffffffffffffffffff16021790555060208201518160000160146101000a81548160ff0219169083151502179055509050505050565b6000809054906101000a900473ffffffffffffffffffffffffffffffffffffffff1681565b60008060009054906101000a900473ffffffffffffffffffffffffffffffffffffffff16905090565b600660003373ffffffffffffffffffffffffffffffffffffffff1673ffffffffffffffffffffffffffffffffffffffff16815260200190815260200160002060000160149054906101000a900460ff16611ece576040517f08c379a00000000000000000000000000000000000000000000000000000000081526004018080602001828103825260258152602001806127b96025913960400191505060405180910390fd5b6000600660003373ffffffffffffffffffffffffffffffffffffffff1673ffffffffffffffffffffffffffffffffffffffff168152602001908152602001600020600101541415611f6a576040517f08c379a00000000000000000000000000000000000000000000000000000000081526004018080602001828103825260258152602001806128b26025913960400191505060405180910390fd5b600060046000600660003373ffffffffffffffffffffffffffffffffffffffff1673ffffffffffffffffffffffffffffffffffffffff16815260200190815260200160002060020160000160009054906101000a900473ffffffffffffffffffffffffffffffffffffffff1673ffffffffffffffffffffffffffffffffffffffff1673ffffffffffffffffffffffffffffffffffffffff168152602001908152602001600020600101600660003373ffffffffffffffffffffffffffffffffffffffff1673ffffffffffffffffffffffffffffffffffffffff16815260200190815260200160002060050160009054906101000a900460ff1660ff168154811061207057fe5b90600052602060002090602091828204019190069054906101000a900460ff1660ff1611612106576040517f08c379a00000000000000000000000000000000000000000000000000000000081526004018080602001828103825260078152602001807f572068206120740000000000000000000000000000000000000000000000000081525060200191505060405180910390fd5b60046000600660003373ffffffffffffffffffffffffffffffffffffffff1673ffffffffffffffffffffffffffffffffffffffff16815260200190815260200160002060020160000160009054906101000a900473ffffffffffffffffffffffffffffffffffffffff1673ffffffffffffffffffffffffffffffffffffffff1673ffffffffffffffffffffffffffffffffffffffff168152602001908152602001600020600101600660003373ffffffffffffffffffffffffffffffffffffffff1673ffffffffffffffffffffffffffffffffffffffff16815260200190815260200160002060050160009054906101000a900460ff1660ff168154811061220a57fe5b906000526020600020906020918282040191900681819054906101000a900460ff16809291906001900391906101000a81548160ff021916908360ff160217905550506000600660003373ffffffffffffffffffffffffffffffffffffffff1673ffffffffffffffffffffffffffffffffffffffff16815260200190815260200160002060010181905550565b600560003373ffffffffffffffffffffffffffffffffffffffff1673ffffffffffffffffffffffffffffffffffffffff16815260200190815260200160002060000160149054906101000a900460ff1661233c576040517f08c379a000000000000000000000000000000000000000000000000000000000815260040180806020018281038252602481526020018061286d6024913960400191505060405180910390fd5b80600360008273ffffffffffffffffffffffffffffffffffffffff1673ffffffffffffffffffffffffffffffffffffffff16815260200190815260200160002060000160149054906101000a900460ff166123ff576040517f08c379a000000000000000000000000000000000000000000000000000000000815260040180806020018281038252600f8152602001807f4e6f7420612063726f7373696e672e000000000000000000000000000000000081525060200191505060405180910390fd5b5050565b600080600090505b600460008473ffffffffffffffffffffffffffffffffffffffff1673ffffffffffffffffffffffffffffffffffffffff16815260200190815260200160002060000160159054906101000a900460ff1660ff168160ff1610156124f9576000600460008573ffffffffffffffffffffffffffffffffffffffff1673ffffffffffffffffffffffffffffffffffffffff1681526020019081526020016000206001018260ff16815481106124ba57fe5b90600052602060002090602091828204019190069054906101000a900460ff1660ff16146124ec5760009150506124ff565b808060010191505061240b565b50600190505b919050565b6040518060a00160405280600073ffffffffffffffffffffffffffffffffffffffff168152602001600015158152602001600081526020016125446126ed565b8152602001600060ff1681525090565b6040518060c00160405280600073ffffffffffffffffffffffffffffffffffffffff1681526020016000151581526020016000600281111561259257fe5b8152602001600073ffffffffffffffffffffffffffffffffffffffff168152602001600061ffff168152602001600081525090565b6040518060a00160405280600073ffffffffffffffffffffffffffffffffffffffff168152602001600015158152602001600060ff168152602001600060ff168152602001606081525090565b82805482825590600052602060002090601f016020900481019282156126aa5791602002820160005b8382111561267b57835183826101000a81548160ff021916908360ff160217905550926020019260010160208160000104928301926001030261263d565b80156126a85782816101000a81549060ff021916905560010160208160000104928301926001030261267b565b505b5090506126b79190612760565b5090565b6040518060400160405280600073ffffffffffffffffffffffffffffffffffffffff1681526020016000151581525090565b6040518060c00160405280600073ffffffffffffffffffffffffffffffffffffffff1681526020016000151581526020016000600281111561272b57fe5b8152602001600073ffffffffffffffffffffffffffffffffffffffff168152602001600061ffff168152602001600081525090565b61278d91905b8082111561278957600081816101000a81549060ff021916905550600101612766565b5090565b9056fe43726f7373696e67206973206e6f74207065726d697474656420617420746865206d6f6d656e742e4d75737420626520612063617220746f20706572666f726d207468697320616374696f6e2e596f75206d7573742062652074686520736574207363686564756c657220746f20706572666f726d207468697320616374696f6e2e416c7265616479207265676973746572656420617320612063726f7373696e672e5741524e3a2056616c6964697479206f6620667265652063726f7373696e6720657870697265642e20415353554d494e47204c4f434b45442e4f6e6c7920747261696e732063616e20706572666f726d207468697320616374696f6e2e4c616e652069732066756c6c2e2054727920616761696e206c6174657221203a29596f752068617665206e6f2076616c6964207061737320617420746865206d6f6d656e742e596f75206861766520616e206f70656e207065726d697373696f6e2e20436c6f73652069742066697273742e596f75206e6565642061646d696e207065726d697373696f6e7320666f72207468697320616374696f6e2ea265627a7a723158208208ea1f938998c638b088f8f9c69bd562df4082745710335368141456e9cd8764736f6c63430005100032",
  "source": "pragma solidity >=0.5.1;\r\n// SPDX-License-Identifier: UNLICENSED\r\n\r\ncontract AutonomousCrossing {\r\n\r\n    // ####### AUTHORITY ##################################################\r\n\r\n    address public authority;\r\n    uint256 validity_period = 15 days;\r\n\r\n    constructor() public {\r\n        authority = msg.sender;\r\n    }\r\n    \r\n    /*constructor(address admin) {\r\n        authority = admin; \r\n    }*/\r\n\r\n    function getAuthority() public view returns(address) {\r\n        return authority;\r\n    }\r\n    \r\n    modifier isAdmin() {\r\n        \r\n        require(msg.sender == authority, \"You need admin permissions for this action.\");\r\n        _;\r\n        \r\n    }\r\n\r\n    address scheduler;\r\n\r\n    function setScheduler(address schedulerAddress) public isAdmin {\r\n        scheduler = schedulerAddress;\r\n    }\r\n\r\n    function ScheduledCheck() public view {\r\n\r\n        require(msg.sender == scheduler, \"You must be the set scheduler to perform this action.\");\r\n\r\n        // TODO scheduled task.\r\n        // - FREE signal validity update\r\n        // - check_if_pass_released gedpp\r\n\r\n    }\r\n\r\n    // ####### CROSSING + LANES ##################################################\r\n\r\n    /**\r\n        Defines possible states of the crossing\r\n     */\r\n    enum CrossingState {\r\n        LOCKED, // Noone is able to cross, until the crossing train signals to have left\r\n        FREE, // Cars are allowed to cross, if the crossing is not filled\r\n        LOCK_REQUESTED // No more cars are granted permission to cross\r\n    }\r\n    \r\n    struct Lanes {\r\n        address id;\r\n        bool isSet;\r\n        uint8 lane_num; // Number of lanes in the crossing\r\n        uint8 cars_per_lane; // Allowed cars per lane\r\n\r\n        uint8[] lanes;\r\n    }\r\n\r\n    struct Crossing {\r\n        address id;\r\n        bool isSet;\r\n\r\n        CrossingState state;\r\n        \r\n        address train_lock; // Current train crossing\r\n        uint16 time_to_pass; // Allowed maximum pass validity\r\n\r\n        uint256 freeValidity;\r\n    }\r\n\r\n    mapping (address=>Crossing) public crossings; // Stores addresses of the crossings.\r\n    mapping (address=>Lanes) public crossing_lanes; // Stores lane data for crossing addresses.\r\n\r\n    modifier isCrossing() {\r\n        require(crossings[msg.sender].isSet, \"Only crossings can perform this action.\");\r\n        _;\r\n    }\r\n\r\n    modifier assumeCrossing(address cross) {\r\n        require(crossings[cross].isSet, \"Not a crossing.\");\r\n        _;\r\n    }\r\n\r\n    function IsCrossingFree(address crossing) internal view returns(bool) {\r\n\r\n        for(uint8 i = 0; i < crossing_lanes[crossing].lane_num; i++) {\r\n            if(crossing_lanes[crossing].lanes[i] != 0) return false;\r\n        }\r\n\r\n        return true;\r\n\r\n    }\r\n\r\n    function RegisterCrossing(address id, uint8 lanes, uint8 cars_per_lane, uint16 time_to_pass)\r\n    public isAdmin {\r\n        \r\n        Crossing memory c;\r\n        Lanes memory l;\r\n        \r\n        c.id = id;\r\n        l.id = id;\r\n        c.isSet = true;\r\n        l.isSet = true;\r\n\r\n        c.train_lock = address(0);\r\n        c.state = CrossingState.FREE;\r\n        c.freeValidity = block.timestamp + validity_period;\r\n        c.time_to_pass = time_to_pass;\r\n\r\n        l.cars_per_lane = cars_per_lane;\r\n        l.lane_num = lanes;\r\n        \r\n        l.lanes = new uint8[](l.lane_num);\r\n\r\n        crossings[c.id] = c;\r\n        crossing_lanes[c.id] = l;\r\n        \r\n    }\r\n    \r\n\r\n/*\r\n    function LockRequest(address crossing) public returns(bool) isTrain {    \r\n        require(crossings[crossing].isSet, \"The argument must be registered as a crossing\");\r\n\r\n        Crossing c = crossings[crossing];\r\n\r\n        if(c.state == CrossingState.LOCKED) {\r\n            return false;\r\n        } else if(c.state == CrossingState.FREE) {\r\n            c.state = CrossingState.LOCK_REQUESTED;\r\n            c.train_lock = msg.sender;\r\n            return true;\r\n        \r\n        } else if(c.state == CrossingState.LOCK_REQUESTED) {\r\n\r\n        }\r\n\r\n    }*/\r\n\r\n    // ####### TRAIN ##################################################\r\n\r\n    struct Train {\r\n        address id;\r\n        bool isSet;\r\n    }\r\n    \r\n    mapping (address=>Train) public trains;\r\n    \r\n    function RegisterTrain(address id) public isAdmin {\r\n        \r\n        Train memory t = Train(id, true);\r\n        trains[t.id] = t;\r\n        \r\n    }\r\n\r\n    modifier isTrain() {\r\n        require(trains[msg.sender].isSet, \"Only trains can perform this action.\");\r\n        _;\r\n    }\r\n    \r\n    function LockCrossing(address crossing) public isTrain assumeCrossing(crossing) returns(bool) {\r\n        \r\n        if(crossings[crossing].train_lock != address(0)) return false;\r\n        crossings[crossing].train_lock = msg.sender;\r\n\r\n        if(IsCrossingFree(crossing)) {\r\n            crossings[crossing].state = CrossingState.LOCKED;\r\n        } else {\r\n            crossings[crossing].state = CrossingState.LOCK_REQUESTED;\r\n                \r\n        }\r\n\r\n        return true;\r\n    }\r\n\r\n    function ReleaseLock(address crossing) public isTrain assumeCrossing(crossing){\r\n        \r\n\r\n\r\n    }\r\n    \r\n    // ####### CAR ##################################################\r\n\r\n    struct Car {\r\n        address id;\r\n        bool isSet;\r\n        uint256 passValidity;\r\n\r\n        Crossing crossing;\r\n        uint8 lane;\r\n\r\n    }\r\n    \r\n    mapping (address=>Car) cars;\r\n\r\n    mapping (address=>uint16) internal tickets;\r\n\r\n    function RegisterCar() public {\r\n        \r\n        require(!cars[msg.sender].isSet, \"Already registered as a car.\");\r\n        require(!trains[msg.sender].isSet, \"Already registered as a train.\");\r\n        require(!crossings[msg.sender].isSet, \"Already registered as a crossing.\");\r\n        \r\n        Car memory c;\r\n        \r\n        c.id = msg.sender;\r\n        c.isSet = true;\r\n        c.passValidity = 0;\r\n        \r\n        cars[c.id] = c;\r\n        \r\n    }\r\n\r\n    modifier isCar() {\r\n        require(cars[msg.sender].isSet, \"Must be a car to perform this action.\");\r\n        _;\r\n    }\r\n\r\n    function RequestPass(address crossing, uint8 lane) public isCar returns(uint256) {\r\n        \r\n        Crossing storage cr = crossings[crossing];\r\n        \r\n        Car storage car = cars[msg.sender];\r\n        \r\n        require(cr.isSet, \"Invalid request - not a crossing\");\r\n        require(car.passValidity == 0, \"You have an open permission. Close it first.\");\r\n        require(cr.state == CrossingState.FREE, \"Crossing is not permitted at the moment.\");\r\n        require(block.timestamp <= cr.freeValidity, \"WARN: Validity of free crossing expired. ASSUMING LOCKED.\");\r\n        require(lane < crossing_lanes[crossing].lane_num, \"Invalid lane.\");\r\n        require(crossing_lanes[crossing].lanes[lane] < crossing_lanes[crossing].cars_per_lane, \"Lane is full. Try again later! :)\");\r\n        \r\n        crossing_lanes[crossing].lanes[lane]++;\r\n        \r\n        car.passValidity = block.timestamp + cr.time_to_pass;\r\n\r\n        car.lane = lane;\r\n        car.crossing = cr;\r\n            \r\n        return car.passValidity;\r\n\r\n    }\r\n\r\n    function ReleasePass() public isCar {\r\n\r\n        require(cars[msg.sender].passValidity != 0, \"You have no valid pass at the moment.\");\r\n        require(crossing_lanes[cars[msg.sender].crossing.id].lanes[cars[msg.sender].lane] > 0, \"W h a t\");\r\n\r\n        crossing_lanes[cars[msg.sender].crossing.id].lanes[cars[msg.sender].lane]--;\r\n        cars[msg.sender].passValidity = 0;\r\n\r\n    }\r\n\r\n    function CheckIfPassIsReleased() internal isCar {\r\n        if(cars[msg.sender].passValidity != 0) //the car still owns their pass, which is considered illegal\r\n        {\r\n            // Do you know why I pulled you over, sir?\r\n            tickets[msg.sender]++;\r\n        }\r\n    }\r\n\r\n}",
  "sourcePath": "C:/Users/nemet/Desktop/work/GitKraken/Solidity-Homework-2/contracts/authority.sol",
  "compiler": {
    "name": "solc",
    "version": "0.5.16+commit.9c3226ce.Emscripten.clang"
  },
  "schemaVersion": "3.4.1",
  "updatedAt": "2021-05-14T13:13:09.892Z",
  "networkType": "ethereum",
  "devdoc": {
    "methods": {}
  },
  "userdoc": {
    "methods": {}
  }
}